:100000000C9434000C94C2000C94C2000C94C200F6
:100010000C94C2000C94C2000C94C2000C94C20058
:100020000C94C2000C94C2000C94C2000C94C20048
:100030000C94C2000C94C2000C94C2000C94C20038
:100040000C94C2000C94C2000C94C2000C94C20028
:100050000C94C2000C94C2000C94C2000C94C20018
:100060000C94C2000C94C20011241FBECFEFD8E044
:10007000DEBFCDBF0E9440000C94B000F894FFCFCB
:100080008AB182608AB90E94BB000E9469000E9406
:100090007D002FEF8BE792E9215080409040E1F7FF
:1000A00000C000000E948E002FEF8BE792E92150E4
:1000B00080409040E1F700C000000E949F002FEFB9
:1000C0008BE792E9215080409040E1F700C00000AA
:0200D000DECF81
:1000D20084B1866084B9E0E8F0E08081806A808340
:1000E200808182608083E1E8F0E0808188618083A2
:0800F200808182608083089583
:1000FA008FE39FE190938700809386008CE390E0E2
:10010A00909389008093880090938B0080938A0053
:02011A00089546
:10011C008FE39FE1909387008093860080E991E0C4
:10012C00909389008093880090938B0080938A0031
:02013C00089524
:10013E008FE39FE1909387008093860088EE93E093
:10014E00909389008093880090938B0080938A000F
:02015E00089502
:10016000EC010E94C7000E94C600CE010E94C80098
:06017000CE010E94C40054
:0E01760080E480937C0087E880937A000895EF
:040184000C940000D7
:040188000E943E0093
:02018C000895D4
:02018E000895D2
:020190000895D0
:00000001FF
