:100000000C943A000C949D000C9409010C94090185
:100010000C9409010C9409010C9409010C94090138
:100020000C9409010C9409010C9409010C94090128
:100030000C9409010C9409010C9409010C94090118
:100040000C9409010C9409010C9409010C94090108
:100050000C9409010C9409010C9409010C940901F8
:100060000C9409010C940901010001040002200113
:100070000401068011241FBECFEFD8E0DEBFCDBF44
:10008000E8E6F0E040E017C0B591A59135912591E3
:10009000059107FD0CC095918591EF01F92FE82F8F
:1000A00005900D92A217B307D9F7FE0104C01D9267
:1000B000A217B307E1F7E437F40731F70E946400B1
:0800C0000C94F700F894FFCF47
:1000C8000E94E20080910501882349F180E00E94A6
:1000D800C8008130924020F085B1846085B903C0A2
:1000E80085B18B7F85B98FEF9BE722E981509040DE
:1000F8002040E1F700C00000E0910401F0E0E0508A
:10010800FF4F808188BD87BD809104018F5F8093F8
:100118000401843020F01092040118BC17BC8FEF42
:100128009BE722E9815090402040E1F700C00000A1
:02013800C9CF2D
:10013A001F920F920FB60F9211248F939F93909153
:10014A00050181E0911180E080930501809105010C
:10015A00882339F085B1816085B985B18D7F85B9EC
:10016A000BC085B18E7F85B985B1826085B918BC0F
:10017A0017BC85B18B7F85B99F918F910F900FBE68
:06018A000F901F90189574
:100190008770ECE7F0E09081987F892B8083EAE715
:1001A000F0E080818064808380917A0084FFFCCFBE
:1001B000EAE7F0E08081806180838091780090910F
:0401C0007900089525
:1001C40084B5816884BD85B5816085BD8AB180664A
:1001D4008AB9E9E6F0E08081826080838DB3816032
:0A01E4008DBB78940E94020108957B
:1001EE00EC010E940E010E940D01CE010E940F0132
:0601FE00CE010E940B017E
:0E02040080E480937C0087E880937A00089560
:040212000C94000048
:040216000E946200E0
:02021A00089545
:02021C00089543
:02021E00089541
:040220004080C0FF5B
:00000001FF
