:100000000C9437000C94BA010C94F3000C94BA01D0
:100010000C94BA010C94BA010C94BA010C94BA0174
:100020000C94BA010C94BA010C94BA010C94BA0164
:100030000C94BA010C94BA010C94BA010C94BA0154
:100040000C94BA010C94BA010C94BA010C94BA0144
:100050000C94BA010C94BA010C94BA010C94BA0134
:100060000C94BA010C94BA01010001028000112421
:100070001FBECFEFD8E0DEBFCDBFE8E6F0E040E046
:1000800017C0B591A59135912591059107FD0CC03B
:1000900095918591EF01F92FE82F05900D92A21708
:1000A000B307D9F7FE0104C01D92A217B307E1F709
:1000B000ED36F40731F70E9461000C949801F89432
:0200C000FFCF70
:1000C2008FE39FE190938700809386000E948B01CB
:1000D2008AB186618AB987B1846187B987B18A603A
:1000E20087B90E94A30180910001909101010197BB
:1000F20009F05FC00E9437018BB18F7E8BB98BB143
:1001020084608BB90E94AA0188B18B7F88B988B1BB
:100112008F7E88B988B1826088B988B1886088B9D1
:100122002FEF8BE792E9215080409040E1F700C029
:1001320000000E9450010E9437010E94AE012FEF81
:100142008BE792E9215080409040E1F700C0000027
:100152000E9437010E947B010E94B2012FEF8BE7C0
:1001620092E9215080409040E1F700C000000E94D7
:1001720037010E9467018BB18B7F8BB98BB1806194
:100182008BB988B18D7F88B988B1877F88B988B1EA
:10019200806188B988B1846088B90E94B6012FEF66
:1001A2008BE792E9215080409040E1F700C00000C7
:1001B2009ACF8BB180618BB92FEF8BE792E92150F7
:1001C20080409040E1F700C000008BB18F7E8BB978
:1001D2002FEF8BE792E9215080409040E1F700C079
:0401E200000081CFC9
:1001E6001F920F920FB60F9211242F938F939F9306
:1001F6002FEF8BE792E9215080409040E1F700C055
:1002060000008091000190910101019729F410925C
:1002160001011092000106C081E090E09093010177
:10022600809300019F918F912F910F900FBE0F9099
:040236001F90189568
:10023A008770ECE7F0E09081987F892B8083EAE76A
:10024A00F0E080818064808380917A0084FFFCCF13
:10025A00EAE7F0E080818061808380917800909164
:04026A00790008957A
:10026E00CF93DF93C8ECD0E00EC080E00E941D015A
:10027E008039914020F48BB182608BB903C08BB171
:10028E008D7F8BB92197C536D1057CF7DF91CF9144
:02029E000895C1
:1002A0008AB180628AB98AB18F7B8AB9E0E8F0E0CE
:1002B0008081806A8083808182608083E1E8F0E0D1
:0E02C0008081886180838081826080830895C0
:1002CE008AB180668AB9E0E8F0E08081806A808336
:1002DE00808182608083E1E8F0E0808188618083A4
:0802EE00808182608083089585
:1002F6008AB18F7D8AB98AB180648AB984B58360F0
:1003060084BD84B5806A84BD85B5826085BD089547
:100316008AB1877F8AB9E9E6F0E0808184608083CC
:0A0326008DB382608DBB78940895BA
:10033000EC010E94BF010E94BE01CE010E94C001DB
:06034000CE010E94BC0189
:0E03460080E480937C0087E880937A0008951D
:0803540084E187BD88BD089516
:08035C0082E387BD88BD08950E
:0803640086E987BD88BD0895FC
:08036C008FEF87BD88BD0895E5
:040374000C940000E5
:040378000E945F0080
:02037C000895E2
:02037E000895E0
:020380000895DE
:00000001FF
