:100000000C9434000C9447010C9447010C94470164
:100010000C9447010C9447010C9447010C94470140
:100020000C9447010C9447010C9447010C94470130
:100030000C9447010C9447010C9447010C94470120
:100040000C9447010C9447010C9447010C94470110
:100050000C9447010C9447010C9447010C94470100
:100060000C9447010C94470111241FBECFEFD8E038
:10007000DEBFCDBF0E9440000C942B01F894FFCF4F
:100080008AB182608AB98FEF85B90E9440010E94CF
:10009000FA000E949E000E94CE002FEF8BE792E9AB
:1000A000215080409040E1F700C000000E94B7005E
:1000B0000E949E000E941E012FEF8BE792E92150C3
:1000C00080409040E1F700C000000E949E000E9426
:1000D0000E010E9436012FEF8BE792E921508040FC
:1000E0009040E1F700C000000E949E000E94FA00CC
:1000F0000E94E4002FEF8BE792E92150804090406E
:08010000E1F700C00000C3CFCD
:100108008770ECE7F0E09081987F892B8083EAE79D
:10011800F0E080818064808380917A0084FFFCCF46
:10012800EAE7F0E080818061808380917800909197
:0401380079000895AD
:10013C00CF93DF93C8ECD0E00EC080E00E94840027
:10014C008039914020F48BB182608BB903C08BB1A4
:10015C008D7F8BB92197C536D1057CF7DF91CF9177
:02016C000895F4
:10016E008BB180628BB98BB18F7B8BB9E0E8F0E0FD
:10017E008081806A8083808182608083E1E8F0E004
:0E018E008081886180838081826080830895F3
:10019C008FE39FE1909387008093860084E187BD75
:1001AC0088BD84B18B7F84B984B18F7E84B984B1CE
:0C01BC00826084B984B1886084B9089521
:1001C8008FE39FE190938700809386008FEF87BD30
:1001D80088BD84B18D7F84B984B1877F84B984B1A7
:0C01E800806184B985B1846085B90895F8
:1001F4008BB180668BB9E0E8F0E08081806A80830F
:10020400808182608083E1E8F0E08081886180837E
:0802140080818260808308955F
:10021C008BB18F7D8BB98BB180648BB984B58360C6
:10022C0084BD84B5806A84BD85B5826085BD089522
:10023C0084B1826084B98FE39FE1909387008093AF
:0A024C00860082E387BD88BD089597
:10025600EC010E944C010E944B01CE010E944D010F
:06026600CE010E944901D7
:10026C008FE39FE1909387008093860086E987BD9A
:04027C0088BD08959C
:0E02800080E480937C0087E880937A000895E4
:04028E000C940000CC
:040292000E943E0088
:020296000895C9
:020298000895C7
:02029A000895C5
:00000001FF
