:100000000C9434000C946B010C94B2000C946B01B2
:100010000C946B010C946B010C946B010C946B01B0
:100020000C946B010C946B010C946B010C946B01A0
:100030000C946B010C946B010C946B010C946B0190
:100040000C946B010C946B010C946B010C946B0180
:100050000C946B010C946B010C946B010C946B0170
:100060000C946B010C946B0111241FBECFEFD8E0F0
:10007000DEBFCDBF0E9440000C944901F894FFCF31
:100080008FE39FE190938700809386000E943C015C
:100090008AB186618AB987B1846187B987B18A607C
:1000A00087B90E9454010E94E8008BB18F7E8BB902
:1000B0008BB184608BB90E945B0188B18B7F88B95A
:1000C00088B18F7E88B988B1826088B988B188602C
:1000D00088B92FEF8BE792E9215080409040E1F7FB
:1000E00000C000000E9401010E94E8000E945F0120
:1000F0002FEF8BE792E9215080409040E1F700C05C
:1001000000000E94E8000E942C010E9463012FEF72
:100110008BE792E9215080409040E1F700C0000059
:100120000E94E8000E9418018BB18B7F8BB98BB1C4
:1001300080618BB988B18D7F88B988B1877F88B994
:1001400088B1806188B988B1846088B90E946701EC
:100150002FEF8BE792E9215080409040E1F700C0FB
:040160000000A1CF2B
:100164001F920F920FB60F9211242F933F938F93E8
:100174009F932AEA36EE86E991E021503040804090
:100184009040D9F700009F918F913F912F910F904C
:080194000FBE0F901F9018959B
:10019C008770ECE7F0E09081987F892B8083EAE709
:1001AC00F0E080818064808380917A0084FFFCCFB2
:1001BC00EAE7F0E080818061808380917800909103
:0401CC007900089519
:1001D000CF93DF93C8ECD0E00EC080E00E94CE0049
:1001E0008039914020F48BB182608BB903C08BB110
:1001F0008D7F8BB92197C536D1057CF7DF91CF91E3
:0202000008955F
:100202008AB180628AB98AB18F7B8AB9E0E8F0E06C
:100212008081806A8083808182608083E1E8F0E06F
:0E02220080818861808380818260808308955E
:100230008AB180668AB9E0E8F0E08081806A8083D4
:10024000808182608083E1E8F0E080818861808342
:08025000808182608083089523
:100258008AB18F7D8AB98AB180648AB984B583608E
:1002680084BD84B5806A84BD85B5826085BD0895E6
:100278008AB1877F8AB9E9E6F0E08081846080836B
:0A0288008DB382608DBB7894089559
:10029200EC010E9470010E946F01CE010E94710167
:0602A200CE010E946D0177
:0E02A80080E480937C0087E880937A000895BC
:0802B60084E187BD88BD0895B5
:0802BE0082E387BD88BD0895AD
:0802C60086E987BD88BD08959B
:0802CE008FEF87BD88BD089584
:0402D6000C94000084
:0402DA000E943E0040
:0202DE00089581
:0202E00008957F
:0202E20008957D
:00000001FF
