:100000000C9434000C9440010C9440010C94400179
:100010000C9440010C9440010C9440010C9440015C
:100020000C9440010C9440010C9440010C9440014C
:100030000C9440010C9440010C9440010C9440013C
:100040000C9440010C9440010C9440010C9440012C
:100050000C9440010C9440010C9440010C9440011C
:100060000C9440010C94400111241FBECFEFD8E046
:10007000DEBFCDBF0E9440000C941E01F894FFCF5C
:100080008FE39FE190938700809386008AB1866119
:100090008AB987B1846187B987B18A6087B90E94BC
:1000A00029010E94CA008BB18F7E8BB98BB184600D
:1000B0008BB90E94300188B18B7F88B988B18F7E5F
:1000C00088B988B1826088B988B1886088B92FEF13
:1000D0008BE792E9215080409040E1F700C000009A
:1000E0000E94E3000E94CA000E9434012FEF8BE7B8
:1000F00092E9215080409040E1F700C000000E944A
:10010000CA000E940E010E9438012FEF8BE792E98E
:10011000215080409040E1F700C000000E94CA00DA
:100120000E94FA008BB18B7F8BB98BB180618BB948
:1001300088B18D7F88B988B1877F88B988B180619F
:1001400088B988B1846088B90E943C012FEF8BE7A1
:1001500092E9215080409040E1F700C00000A1CF1B
:100160008770ECE7F0E09081987F892B8083EAE745
:10017000F0E080818064808380917A0084FFFCCFEE
:10018000EAE7F0E08081806180838091780090913F
:040190007900089555
:10019400CF93DF93C8ECD0E00EC080E00E94B000A3
:1001A4008039914020F48BB182608BB903C08BB14C
:1001B4008D7F8BB92197C536D1057CF7DF91CF911F
:0201C40008959C
:1001C6008AB180628AB98AB18F7B8AB9E0E8F0E0A9
:1001D6008081806A8083808182608083E1E8F0E0AC
:0E01E60080818861808380818260808308959B
:1001F4008AB180668AB9E0E8F0E08081806A808311
:10020400808182608083E1E8F0E08081886180837E
:0802140080818260808308955F
:10021C008AB18F7D8AB98AB180648AB984B58360CA
:10022C0084BD84B5806A84BD85B5826085BD089522
:10023C00EC010E9445010E944401CE010E9446013E
:06024C00CE010E944201F8
:0E02520080E480937C0087E880937A00089512
:0802600084E187BD88BD08950B
:0802680082E387BD88BD089503
:0802700086E987BD88BD0895F1
:080278008FEF87BD88BD0895DA
:040280000C940000DA
:040284000E943E0096
:020288000895D7
:02028A000895D5
:02028C000895D3
:00000001FF
