:100000000C9434000C9441010C9441010C94410176
:100010000C9441010C9441010C9441010C94410158
:100020000C9441010C9441010C9441010C94410148
:100030000C9441010C9441010C9441010C94410138
:100040000C9441010C9441010C9441010C94410128
:100050000C9441010C9441010C9441010C94410118
:100060000C9441010C94410111241FBECFEFD8E044
:10007000DEBFCDBF0E9440000C940701F894FFCF73
:100080008AB182608AB984B1846184B984B18A609A
:1000900084B90E943A010E94E3000E94B30085B136
:1000A000826085B985B1886085B90E9412012FEF01
:1000B0008BE792E9215080409040E1F700C00000BA
:1000C0000E94CC000E94B3000E941C012FEF8BE71E
:1000D00092E9215080409040E1F700C000000E946A
:1000E000B3000E94F7000E9426012FEF8BE792E9F0
:1000F000215080409040E1F700C000000E94B30012
:100100000E94E30085B18D7F85B985B1877F85B970
:100110008AE085B985B1806185B90E9430012FEFF1
:100120008BE792E9215080409040E1F700C0000049
:02013000B2CF4C
:100132008770ECE7F0E09081987F892B8083EAE773
:10014200F0E080818064808380917A0084FFFCCF1C
:10015200EAE7F0E08081806180838091780090916D
:040162007900089583
:10016600CF93DF93C8ECD0E00EC080E00E949900E8
:100176008039914020F48BB182608BB903C08BB17A
:100186008D7F8BB92197C536D1057CF7DF91CF914D
:020196000895CA
:100198008AB180628AB98AB18F7B8AB9E0E8F0E0D7
:1001A8008081806A8083808182608083E1E8F0E0DA
:0E01B8008081886180838081826080830895C9
:1001C6008AB180668AB9E0E8F0E08081806A80833F
:1001D600808182608083E1E8F0E0808188618083AD
:0801E60080818260808308958E
:1001EE008AB18F7D8AB98AB180648AB984B58360F9
:1001FE0084BD84B5806A84BD85B5826085BD089551
:10020E00EC010E9446010E944501CE010E94470169
:06021E00CE010E94430125
:100224008FE39FE1909387008093860084E187BDEC
:0402340088BD0895E4
:100238008FE39FE1909387008093860082E387BDD8
:0402480088BD0895D0
:10024C008FE39FE1909387008093860086E987BDBA
:04025C0088BD0895BC
:100260008FE39FE190938700809386008FEF87BD97
:0402700088BD0895A8
:0E02740080E480937C0087E880937A000895F0
:040282000C940000D8
:040286000E943E0094
:02028A000895D5
:02028C000895D3
:02028E000895D1
:00000001FF
