:100000000C9434000C9480010C94B2000C94800188
:100010000C9480010C9480010C9480010C9480015C
:100020000C9480010C9480010C9480010C9480014C
:100030000C9480010C9480010C9480010C9480013C
:100040000C9480010C9480010C9480010C9480012C
:100050000C9480010C9480010C9480010C9480011C
:100060000C9480010C94800111241FBECFEFD8E0C6
:10007000DEBFCDBF0E9440000C945E01F894FFCF1C
:100080008FE39FE190938700809386000E944E014A
:100090008AB186618AB987B1846187B987B18A607C
:1000A00087B90E9469010E94FA008BB18F7E8BB9DB
:1000B0008BB184608BB90E94700188B18B7F88B945
:1000C00088B18F7E88B988B1826088B988B188602C
:1000D00088B92FEF8BE792E9215080409040E1F7FB
:1000E00000C000000E9413010E94FA000E947401E7
:1000F0002FEF8BE792E9215080409040E1F700C05C
:1001000000000E94FA000E943E010E9478012FEF39
:100110008BE792E9215080409040E1F700C0000059
:100120000E94FA000E942A018BB18B7F8BB98BB1A0
:1001300080618BB988B18D7F88B988B1877F88B994
:1001400088B1806188B988B1846088B90E947C01D7
:100150002FEF8BE792E9215080409040E1F700C0FB
:040160000000A1CF2B
:100164001F920F920FB60F9211242F938F939F9388
:100174008BB18D7F8BB98BB18B7F8BB98BB18F7E1C
:100184008BB988B18D7F88B988B18B7F88B988B1E4
:10019400877F88B988B18F7E88B92FEF81E19AE78C
:1001A400215080409040E1F700C000009F918F9162
:0C01B4002F910F900FBE0F901F90189518
:1001C0008770ECE7F0E09081987F892B8083EAE7E5
:1001D000F0E080818064808380917A0084FFFCCF8E
:1001E000EAE7F0E0808180618083809178009091DF
:0401F00079000895F5
:1001F400CF93DF93C8ECD0E00EC080E00E94E00013
:100204008039914020F48BB182608BB903C08BB1EB
:100214008D7F8BB92197C536D1057CF7DF91CF91BE
:0202240008953B
:100226008AB180628AB98AB18F7B8AB9E0E8F0E048
:100236008081806A8083808182608083E1E8F0E04B
:0E02460080818861808380818260808308953A
:100254008AB180668AB9E0E8F0E08081806A8083B0
:10026400808182608083E1E8F0E08081886180831E
:080274008081826080830895FF
:10027C008AB18F7D8AB98AB180648AB984B583606A
:10028C0084BD84B5806A84BD85B5826085BD0895C2
:10029C008AB188608AB98BB1877F8BB9E9E6F0E0C7
:1002AC008081846080838DB382608DBB7894089547
:1002BC00EC010E9485010E948401CE010E948601FE
:0602CC00CE010E94820138
:0E02D20080E480937C0087E880937A00089592
:0802E0008AEA87BD88BD08957C
:0802E8008EEB87BD88BD08956F
:0802F00088EC87BD88BD08956C
:0802F8008FEF87BD88BD08955A
:040300000C94000059
:040304000E943E0015
:02030800089556
:02030A00089554
:02030C00089552
:00000001FF
